:1015000033C05AC086C058C057C056C055C054C01A
:1015100053C052C051C050C04FC04EC04DC0090250
:1015200012000101008032090400000000000000E8
:1015300012011001FF00000881179F0C0501010234
:10154000000110035400720069006E006B0065001A
:1015500074001203410064006100660072007500AF
:10156000690074000403090411241FBECFE5D2E012
:10157000DEBFCDBF84B7877F84BF0FB6F894A89530
:1015800081B5886181BD11BC0FBE0AEA0F9310E0DE
:10159000A0E6B0E0E0EBFFE102C005900D92A236BC
:1015A000B107D9F721E0A2E6B0E001C01D92A83250
:1015B000B207E1F7CAD3FAC4A3CFA82FB92F80E0AE
:1015C00090E041E050EA609530E009C02D9182271B
:1015D0009795879510F084279527305EC8F36F5F45
:1015E000A8F30895EADF8D939D930895A6E08827D8
:1015F0009927AA9569F00197E1F3B399FCCFB39BC2
:10160000FECF81E09927A6B3019611F0A871D9F712
:101610000895CF93CFB7CF93C0915F02CA3A21F01C
:10162000CF91CFBFCF916ACFCC27C395B39BE9F7BA
:10163000B39B0BC0B39B09C0B39B07C0B39B05C052
:10164000B39B03C0B39B01C0D3C00F92DF93C09183
:101650000B01DD27CE5EDE4F012EB39B03C0DF9171
:101660000F90E6CF2F930F931F934F932FEF4F6F52
:1016700006B303FB20F95F933F9350E03BE065C066
:1016800016B30126502953FDC89556B3012703FB15
:1016900025F92F7306B3B1F05027102713FB26F955
:1016A00006B22230F0F000C016B3012703FB27F981
:1016B0000126502906B22430E8F54F77206816B38A
:1016C0000000F6CF50274F7D206206B2102F000099
:1016D00000C006B300265029102713FB26F906B2D6
:1016E000E2CF4F7B06B3206400C0DACF0126502939
:1016F000187106B269F14E7F2160012F16B328C020
:10170000002650294D7F06B22260102F29C00126E5
:1017100050294B7F06B22460012F2DC016B301263D
:101720005029477F2860000006B22EC04F7E06B3C6
:10173000206130C0422706B3499300265029102764
:1017400006B24FEF13FB20F9297F16B379F2187117
:1017500059F10126502906B2012703FB21F9237F05
:1017600006B371F2002650293150D0F006B210278E
:1017700013FB22F9277E16B351F2012650290127C7
:1017800003FB06B223F92F7C49F2000006B31027B1
:1017900013FB24F90026502906B22F7939F270CFB5
:1017A00010E21ABF002717C03B503195C31BD04031
:1017B00010E21ABF0881033CF9F00B34E9F02091E4
:1017C00009011981110F1213EDCF093651F10D32B4
:1017D00011F0013E39F7009310013F915F914F9155
:1017E0001F910F912F91DF910F90CAB7C5FD1DCFAB
:1017F000CF91CFBFCF91189520911001222369F38B
:1018000010910E01112321F5343022F130930E0195
:1018100020930A0110910B013BE0311B30930B0127
:1018200019C000910E0101309CF40AE5309161006D
:1018300034FD11C000936100CEEFD0E010C0052749
:1018400010E000C021C0052710E0C89508BB14C0F7
:101850003AE501C032ED032EC0E0D0E032E017B32C
:101860001861C39A08B317BB58E120E84FEF20FF77
:10187000052708BB279517951C3F28F70000455200
:10188000B0F720FF0527279508BB17951C3FB8F632
:1018900029913A9561F7077E10910F01110F08BB4E
:1018A000C250D04011F01093090110E21ABF086035
:1018B00017B3177E402F477E54E05A95F1F708BBC7
:1018C00017BB48BB8ACF9C018091F9009091FA0028
:1018D0008D3F9441B8F491E09093F600F894E09134
:1018E000F900F091FA00090190935700E89511244E
:1018F00078948091F9009091FA0002969093FA0002
:101900008093F90008958091F600882309F43EC081
:101910008091F9009091FA008130954108F036C02D
:10192000F8948091F9009091FA00823C944120F162
:1019300021E080916600909167009F708F579A40D8
:101940009F7C906CEEEFF4E10C0120935700E8953A
:10195000112480916E0090916F009F708C579A4077
:101960009F7C906CECEFF4E10C0120935700E8951C
:101970001124789420936400E091F900F091FA002A
:10198000329785E080935700E89578941092F6009E
:101990000895EF92FF920F931F93CF93DF931091CF
:1019A0000E01135017FD8FC080910B01CCE0D0E0E9
:1019B000C81BD109CE5EDE4F21E0209362008091EA
:1019C0000A018D3209F01AC1183009F07AC083EC8F
:1019D0008093FE008AE5809361001092FD0098815B
:1019E00090768981992309F4A7C01092F300109290
:1019F000F5001092F400813009F4C4C0863029F457
:101A000081E08093FC0080E0BDC08730A9F5209381
:101A1000FC0089EE90E090930D0180930C019B8176
:101A20009093EB001092EC008A81803371F4911155
:101A30000AC0EC81F0E0EE0FFF1F81E280935700B7
:101A4000E491E093EC0084E09DC08C3A61F490381E
:101A5000D1F78C818111F7CF8D818111F4CF81E095
:101A60008093E800F0CF8C3471F78D818111EBCF3A
:101A700081E08093E700E7CF883009F4C1CF4C8143
:101A80005D815093FA004093F9009E819093F1009C
:101A900097EF980F943008F0B6CF9FE798BD20934A
:101AA000FB008093F2008A3019F081E08093FC0003
:101AB000888187FFA1C08E8190E89093FD0080937C
:101AC000600010920E018091610084FF1AC1C091E4
:101AD0006000CF3F09F415C18C2FC93008F088E0B1
:101AE0009C2F981B909360009091FE0028E892270D
:101AF0009093FE00CC2309F4F8C04091FD0047FF0D
:101B0000DEC0C091F1009C2F8C1708F4C82F892FDC
:101B10008C1B8093F1009091F200E091F900F0911C
:101B2000FA0080E04FEF50E08C1708F4A3C0F09368
:101B3000FA00E093F900D9C02A81109207018111BF
:101B40000AC01092080127E031E092E030930D01C5
:101B500020930C0116C0853029F420930F0127E053
:101B600031E0F4CF8630B9F58B818130A1F480E388
:101B700095E190930D0180930C0192E180E48093B4
:101B8000FD00892F9F8191119ACF9E81981708F0AF
:101B900096CF892F94CF823019F48EE195E1E9CF69
:101BA000833061F7211108C084E695E190930D011F
:101BB00080930C0194E0E2CF213019F482E595E1A5
:101BC000D8CF2230D9F682E495E190930D0180932D
:101BD0000C0190E1D3CF883059F0893019F420936B
:101BE0001101BDCF91E08A3009F4B9CF90E0B7CFB1
:101BF00021E131E091E0AACF8FEF5ECF8091FD002F
:101C000087FF5FCF8091F100811708F4182F082F0C
:101C1000011B0093F1001092FC008091F2008A30C9
:101C200039F101114ECF109260004BCF2091F90095
:101C30003091FA00D7018D919D917D0120343105BD
:101C4000A8F441E040936500F901EE0FFF1FEA5947
:101C5000FF4F918380832E5F3F4F3093FA00209394
:101C6000F9008E2D8C1B811708F3DBCF2CDEF9CF0A
:101C70007E01F7CF9B3009F457CF993009F054CF4C
:101C8000E034F10578F49F01220F331F2A593F4FAA
:101C9000D9012D913C91DA012D933D93AD013296FE
:101CA0008E5F42CF2FEFEC3FB4E1FB0708F42491A5
:101CB000DA012C934F5F5F4F31968F5F35CF909154
:101CC0000C0130910D01282F290FE92FF32FAFEFD1
:101CD000B0E046FF35C094919D9331962E13FBCF13
:101CE000F0930D01E0930C01C82F6C2F8FEF90E063
:101CF00079DCCC5FCC3019F08FEF80936000C0931B
:101D0000610084E196B3987131F48150D9F7109253
:101D10000F0110920901C1E08111C0E090916300B0
:101D2000C91739F0882319F0F894FDD07894C0933E
:101D30006300DF91CF911F910F91FF90EF90089575
:101D400091919D932E13FCCFCBCFC1B7B99A83E26B
:101D50008ABD81E083BFAC9A8BB780628BBFBB9A90
:101D60002FE182E19AE0215080409040E1F700C0ED
:101D70000000BB9878940DDE8091E800882321F163
:101D800082E090E09093F8008093F70013C0CF01B9
:101D90008F739927892B21F483E080935700E8956E
:101DA000F8DD8091F7009091F80002969093F8008A
:101DB0008093F700E091F700F091F800E11525E13C
:101DC000F20728F31092E8008091E700882329F0B9
:101DD000E0DD99DD1092E700DCDD80916200882370
:101DE00041F08091FC00811104C08091FB008111C1
:101DF000C2CF80916200882371F08091E60081114A
:101E00000AC088B5805F88BD88B5811104C08AB5D5
:101E100090E189278ABD8091E6008F5F8093E6007C
:101E20008EEC90E00197F1F72091F4003091F500ED
:101E30002F5F3F4F3093F5002093F4008091F30023
:101E40002115310511F48F5F00C08093F30090914C
:101E50006200911104C021329EE4390798F49091F8
:101E6000FC00992319F02131374260F4909162000F
:101E7000992309F480CF9091FB0091117CCF83309E
:101E800008F479CF15BA1BBEF894809165008823B9
:101E900041F180916400811139C08CEF94E19093FD
:101EA000FA008093F90081E08093F6002CDD2EC0CB
:101EB000DF01AA0FBB1FAA59BF4F8D919C919F01B3
:101EC0002B7F232B29F4FB5E859194918058954FAD
:101ED000FADCE091F900F091FA00E034F10540F30A
:101EE00012DD10925F0217BA13BE1ABC03C081B78D
:101EF0008F5F81BF81B78C17D0F303C081B781504A
:101F000081BF81B7C817D0F3FACA0BC083E0F0E0F5
:101F1000E0E080935700E8951092FA001092F900E3
:101F2000D8CF90E080E0DF92EF92FF920F931F9363
:101F3000CF93DF9388E0E82EF12CC0E0D0E8DD2ECF
:101F4000DC0ED1BE53DB8C01043389E018070CF49E
:101F5000CD2DD69581E0E81AF10889F78FEF8C0F27
:101F600081BFDC2F21B78C2F90E00196281719062E
:101F700051F04CF0D1BFDF91CF911F910F91FF90A5
:101F8000EF90DF90089532DB9C012453394037FFF6
:101F900004C024E339E0281B390B2017310714F45F
:101FA000D1B7890181B78F5F81BFDCCFF894FFCFB4
:021FB000FF5AD6
:0400000300001500E4
:00000001FF
